:100000005EC000C69DC67FC07EC07DC07CC07BC078
:100010007AC079C078C060C676C075C074C073C03D
:1000200072C0CBC0CFC0D6C0DAC0DEC0E2C0E9C06B
:100030001CC11FC124C127C12AC12DC13DC173C12B
:1000400086C1A1C1CBC114C248C261C264C28BC205
:1000500027C326C325C389C2B4C222C3C8C220C3D2
:100060001FC318C31BC30D0A00503A000D0A0041FC
:10007000000D0A000D0A00443A000D0A004E55001A
:100080000D0A0041000D0A000D0A000D0A00410092
:100090004E42000D0A000D0A0041004E4200410090
:1000A0000D0A004E55000D0A00473A000D0A005493
:1000B0003A50696C6C4361703A004E55000011244F
:1000C0001FBECFE5D2E0DEBFCDBF14BE0FB6F894A1
:1000D000A89581B5886181BD11BC0FBE10E0A0E676
:1000E000B0E0ECE3F2E102C005900D92A836B10752
:1000F000D9F721E0A8E6B0E001C01D92AE32B20708
:10010000E1F7C2D499C87CCF8AEB90E0DFC6CF92EA
:10011000DF92EF92FF928FEA90E0D8D680E39DD6EF
:100120008EE29BD683E399D680E397D68AE395D671
:10013000EED3811102C084E016C0E9D38F3FD9F31A
:10014000E9D3F82EE4D3F81659F019D46B017C01E9
:100150003BD46C157D058E059F0520F081E003C022
:1001600080E001C082E0805D78D68CEA90E0FF906C
:10017000EF90DF90CF90AAC60F931F93CF93DF939A
:10018000CDB7DEB765970FB6F894DEBF0FBECDBF13
:100190008C0189EA90E09AD6D8018C915ED68AE3E8
:1001A0005CD6D801EC918E2F90E0FC01F097E730FF
:1001B000F10578F5EF5EFF4F099445E150E06DE5FC
:1001C00070E004C045E150E068E470E0CE010196C3
:1001D000FCD720C045E150E063E370E0F7CF45E194
:1001E00050E069E070E0F2CF45E150E06EE170E090
:1001F000EDCF80E090E001D84AE0BE016F5F7F4F15
:1002000006C085D34AE0BE016F5F7F4F90E07FD785
:1002100001C019821D8ACE0101964DD686EA90E072
:1002200055D665960FB6F894DEBF0FBECDBFDF91F1
:10023000CF911F910F9108950F931F93DC010196A9
:10024000FC0101900020E9F731974E2F481B463101
:1002500008F045E1EC910E2F10E0F801F097E7303F
:10026000F10570F5E85EFF4F099450E06DE570E030
:1002700003C050E068E470E01F910F91C3C750E0E5
:1002800063E370E0F9CF50E069E070E0F5CF50E053
:100290006EE170E0F1CFF7D68C01BC0180E090E018
:1002A000C8D7B80180E090E020E13EE040E050E0B7
:1002B000AFD61F910F9170C2E6D61F910F9139C32F
:1002C00083EA90E003D680EA90E01F910F91FEC58B
:1002D000982F82958F706AE092D69F70890F08954B
:1002E000CF92DF92EF92FF920F931F93CF93DF9302
:1002F000CDB7DEB7A6970FB6F894DEBF0FBECDBF61
:100300008C018CE380936700F801808190E0F7D640
:10031000815491098431910508F0C2C1815E9F4FDB
:100320008F939F930895F8018181823569F43DD2BE
:1003300020E13EE040E050E084D6CA01B9012CD271
:100340003DD28EE990E0B1C18BE990E0AEC1F801F9
:10035000DE01119698012B5E3F4FAD018281982FEF
:100360009295907F83818053890F8D9333962E17BA
:100370003F07A1F767E084E247D389E990E0A6D57B
:1003800086E990E092C1AE014F5F5F4F67E084E283
:1003900058D383E462D58E010F5F1F4F6E01F8E0E2
:1003A000CF0ED11CF80181918F0192DFF82E8AE3E4
:1003B00054D54AE0BE016F5D7F4F8F2D90E0A7D6E8
:1003C000F9E0FF1510F080E348D5CE01819673D592
:1003D0000C151D0539F783E990E067C187E790E0C8
:1003E00075D598D24AE0BE016F5F7F4F90E0C4D6CA
:1003F000CE01019660D584E790E068D500E010E07A
:1004000089D290E0880F991F880F991F0817190744
:1004100008F04CC1F801E25BF0406F01E12CF12CD7
:100420000C3881E0180738F4C8018E0D9F1D8C58D8
:100430009F4FDBD602C0F601808140E1BE016F5FB5
:100440007F4F90E099D6CE01019635D58AE305D548
:10045000FFEFEF1AFF0A8FEFC81AD80A94E0E916E7
:10046000F104F1F60C5F1F4F81E790E02FD5C8CF64
:10047000F8018181823571F502E010E011700115FB
:10048000110519F4095F1F4F0CC0E12CF12C60E03D
:10049000C701C1D6FFEFEF1AFF0A0E151F05B9F706
:1004A000F1CF011582E0180730F460E0C801B3D63F
:1004B0000F5F1F4FF6CF8FE690E008D58CE690E0F7
:1004C00005D598E088E10FB6F894A89581BD0FBED8
:1004D00091BDFFCF80E990E0E8C0F801DE01119600
:1004E000A8014B5E5F4FCD012281322F3295307FC4
:1004F00023812053230F2D9333964E175F07A1F7C7
:1005000020D28EE890E0E2D48BE890E0CEC0C80123
:10051000019632DECBC0CE01019626D288E49DD46E
:100520008E010F5F1F4F6E0198E0C90ED11CF801BC
:1005300081918F01CDDEF82E8AE38FD44AE0BE018F
:100540006F5D7F4F8F2D90E0E2D5F9E0FF1510F041
:1005500080E383D4CE018196AED40C151D0539F706
:1005600088E890E0A2C039D2A1C047E050E062E044
:1005700070E0CE01019629D68DE46FD48E010F5F15
:100580001F4F6E0188E0C80ED11CF80181918F01C8
:100590009FDEF82E8AE361D44AE0BE016F5D7F4F93
:1005A0008F2D90E0B4D5F9E0FF1510F080E355D41D
:1005B000CE01819680D40C151D0539F785E890E0B1
:1005C00074C0AE014F5F5F4F67E084E23AD2898129
:1005D0008F77898347E050E062E070E0CE010196BA
:1005E00011D683E890E072D480E890E05EC089E69E
:1005F00090E06CD454D14AE0BE016F5F7F4F90E031
:10060000BBD5CE01019657D48AE327D483D14AE0E3
:10061000BE016F5F7F4F90E0AFD5CE0101964BD406
:100620008AE31BD4ACD12AE0AE014F5F5F4F83D584
:10063000CE01019640D48AE310D4B7D02AE0AE01AF
:100640004F5F5F4F78D5CE01019635D48AE305D44C
:10065000BBD12AE0AE014F5F5F4F6DD5CE01019651
:100660002AD48AE3FAD312D12AE0AE014F5F5F4F5A
:1006700062D5CE0101961FD48AE3EFD3FED02AE0E3
:10068000AE014F5F5F4F57D5CE01019614D486E679
:1006900090E00BC0C8010196CFDD08C038DD06C070
:1006A0008DE790E013D48AE790E010D4A6960FB6B9
:1006B000F894DEBF0FBECDBFDF91CF911F910F9198
:1006C000FF90EF90DF90CF9008950F931F93CF93FB
:1006D000DF93CDB7DEB727970FB6F894DEBF0FBE16
:1006E000CDBF9C01E0E6F0E08E010F5F1F4F47E6B3
:1006F00050E0D9019D919D017191892F82958F7054
:100700006AE07DD49F70971B890FD8018D938D016E
:100710004E175F0771F76F8170E080E090E02CE08A
:1007200030E040E050E074D42E81620F711D811DD5
:10073000911D2EE130E040E050E06AD42C81620F40
:10074000711D811D911D28E130E040E050E060D432
:100750002B81620F711D811D911D2CE330E040E063
:1007600050E056D42A81620F711D811D911D2CE32A
:1007700030E040E050E04CD42981620F711D811DB2
:10078000911D27960FB6F894DEBF0FBECDBFDF9147
:10079000CF911F910F91089560936C0070936D003D
:1007A00080936E0090936F00089560916C0070913B
:1007B0006D0080916E0090916F0008958F929F92CE
:1007C000AF92BF92CF92DF92EF92FF9283E790E0D9
:1007D0000CD580906C0090906D00A0906E00B09051
:1007E0006F00682F70E080E090E0A501940110D4C4
:1007F000C0906800D0906900E0906A00F0906B00B3
:10080000C60ED71EE81EF91EC092BE00D092BF00D1
:10081000E092C000F092C10025E530E040E050E0F9
:10082000C501B401F5D3BB27A92F982F872FC80E78
:10083000D91EEA1EFB1EC092D400D092D500E092D1
:10084000D600F092D700FF90EF90DF90CF90BF904E
:10085000AF909F908F900895CF9383E790E0C5D499
:10086000C82F82E790E0C1D4C81728F461E06C0F6C
:1008700083E790E0D0D4CF91A1CF6091D400709164
:10088000D5008091D6009091D70008956091BE0068
:100890007091BF008091C0009091C10008950F93A6
:1008A0001F9381E00091C2001091C3002091C40009
:1008B0003091C5004091BE005091BF006091C000D2
:1008C0007091C100401751076207730708F080E07C
:1008D0001F910F9108950F931F9381E00091C20023
:1008E0001091C3002091C4003091C5004091D40004
:1008F0005091D5006091D6007091D70040175107F4
:100900006207730708F080E01F910F91089582E756
:1009100090E06BC483E790E068C4CF9382E790E0F7
:1009200064D4C82F83E790E060D4C81B8C2FCF918C
:100930000895682F82E790E06ED460E083E790E04E
:100940006AC4FC01A6ECB0E021912D9320E0AD3CFF
:10095000B207D1F7BADE60936800709369008093A4
:100960006A0090936B000895E6ECF0E02191DC01C1
:100970002D93CD01B0E0ED3CFB07C1F708956091E8
:1009800068007091690080916A0090916B000895F1
:100990004DEC50E067E084E254D08DEC90E095DEC1
:1009A0006093C2007093C3008093C4009093C5000D
:1009B0000895EDECF0E02191DC012D93CD01B0E044
:1009C000E43DFB07C1F708956091C2007091C30038
:1009D0008091C4009091C500089581E08093D90072
:1009E00080937000EBCEDA9A80E28DD181E08BD1DA
:1009F0008FE089D1DA98DA9A80E385D18AE083D1D1
:100A000087E181D1DA980895FF920F931F93CF93D6
:100A1000DF93162FF42E052FDA9A75D1CF2DD02F14
:100A2000CE01810F911D8C01C017D10719F089915A
:100A30006AD1FACFDA98DF91CF911F910F91FF9091
:100A40000895EF92FF920F931F93CF93DF93F62EAB
:100A5000EA01DA9A806857D18E01CE018F0D911D7F
:100A60007C010E151F0529F05ED1F80181938F01DD
:100A7000F8CFDA9888818F778883DF91CF911F91A3
:100A80000F91FF90EF90089580E896E00FB6F894EC
:100A900086BD96BD0FBEF8949CE59ABB9AE79BBBBA
:100AA00093E097BB94E098BB15BE81B98FE080B905
:100AB000789499DF85D08091D80081FF02C016D24A
:100AC000FACF8091D80083FF02C04ED0F4CF80913E
:100AD000D80082FF02C0B4D0EECF8091D80084FF4E
:100AE000EACFE8CFEF92FF920F931F93CF93DF935C
:100AF000E82EF62E042F122F0DDFC82FD0E0CC0FDA
:100B0000DD1FCC0FDD1FCC3881E0D807ACF46E2D93
:100B1000CE018C589F4F7FD36F2DCE018B589F4FA6
:100B20007AD3602FCE018A589F4F75D3612FCE01A3
:100B300089589F4F70D30DC0C652DF4FFE01EC584D
:100B4000F140E0823196F08231960083C958D1405D
:100B5000188382DE81E08093D900DF91CF911F91CD
:100B60000F91FF90EF900895CF93DF93CDB7DEB74D
:100B700027970FB6F894DEBF0FBECDBF8091D80087
:100B8000877F8093D8008091D80080618093D800BF
:100B90008CE3809367008091D900811108C0CE0159
:100BA000019607DF2E814C816B818A819BDF27961E
:100BB0000FB6F894DEBF0FBECDBFDF91CF91089581
:100BC0008091D8008F7E8093D80080916700882321
:100BD00011F0DD9A01C0DD98C99BFECFB29BFECF1C
:100BE00080E18ABF82E282BB80E58BBF85B7877ECA
:100BF000806185BF85B7806285BF889585B78F7D09
:100C000085BF08951F920F920FB60F9211248F93F4
:100C10008BB78F7B8BBF8091D80088608093D80082
:100C20008F910F900FBE0F901F901895029881E042
:100C300089BF18BE10BE83E083BF89ED82BF0895CF
:100C4000CF93DF93CDB7DEB727970FB6F894DEBF0B
:100C50000FBECDBF8091D8008B7F8093D80080914C
:100C60006700882319F081508093670050DE882345
:100C700029F180917000882309F14FDE811102C0B3
:100C8000DE980AC08091D900811106C046DE81300D
:100C900011F4DC9801C0DB98C9DF7ADE00DE811137
:100CA0001092D90018DE882371F0CE01019681DE02
:100CB00020E040E060E080E015DF05C08091D800D2
:100CC00080618093D80027960FB6F894DEBF0FBEE0
:100CD000CDBFDF91CF9108951F920F920FB60F9263
:100CE00011248F9313BE19BE029A8BB388658BBBF8
:100CF0008091D80080618093D8008F910F900FBEB3
:100D00000F901F901895B89A98E020E8C198382F56
:100D1000322311F0C09A01C0C098C19A2695915013
:100D2000A9F7C1980895B89898E020E880E0C198A4
:100D3000C19AB099822B26959150C9F7C198089510
:100D40001F920F920FB60F9211242F938F939F93A0
:100D5000EF93FF93CD996EC0DD9B6CC080E00000E7
:100D60008F5F8434E1F780939B0080919A00CD9B44
:100D700004C0806880939A0006C08F7780939A00A1
:100D800000000000000080919A00869580939A00F0
:100D900080E000008F5F8D32E1F780939B0081E05F
:100DA000809399002091990080919A0090919B00E6
:100DB0002730F0F4926090939B00CD9B04C0806834
:100DC00080939A0005C08F7780939A0000000000FE
:100DD00080E000008F5F8D32E1F780939B0080916F
:100DE0009A00869580939A002F5F20939900DACF1E
:100DF000000000009D7F90939B00CD9B02C0806807
:100E000001C08F7780939A00809167008823C9F092
:100E1000E0919D00EF5FEF71E0939900E0939D00FA
:100E2000F0E0E256FF4F80919A0080838091D800D5
:100E3000826005C0C99905C08091D8008460809304
:100E4000D80080E18ABFFF91EF919F918F912F9100
:100E50000F900FBE0F901F9018959BB398619BBB8E
:100E6000DE9890E000009F5F9333E1F710929800C6
:100E7000909198009830B0F480FF02C0DE9A04C0D0
:100E8000DE9800000000000090E000009F5F9033BB
:100E9000E1F7909397008695909198009F5F9093CB
:100EA0009800E6CFDE9A80E000008F5F8033E1F7A4
:100EB000809397000895CF93DF93EC018991882365
:100EC00011F0CBDFFBCFDF91CF910895CF93DF936C
:100ED000EC01CE01FE012491222329F02196FC0190
:100EE0008491BBDFF6CFDF91CF910895CF92DF924F
:100EF000EF92FF921F93CF93DF938091D8008D7F65
:100F00008093D80085E790E09093960080939500B9
:100F100081E790E0909374008093730090919D001E
:100F200080919C00981709F462C090919D00809177
:100F30009C009817D1F3E0919C00EF5FEF71E09374
:100F40009C00E0907300F0907400D701CD91DC918B
:100F50001197C032D10518F01D921C9209C0F0E023
:100F6000E256FF4F10811B3151F4F70111821082BC
:100F7000E0919500F09196001082C6D8CFCF18303E
:100F800029F42197D701CD93DC93C8CFC12ED12C62
:100F9000C60196D0892B31F4C601A6D0892B11F455
:100FA000103271F48091950090919600C80FD91F6E
:100FB0001883F70180819181019691838083AECF60
:100FC0001D3009F0ABCF8091950090919600C80F2D
:100FD000D91F188285D9E0919500F0919600108272
:100FE000E0917300F09174001182108297CFDF912D
:100FF000CF911F91FF90EF90DF90CF900895002444
:1010000080FD060E660F11F08695D1F7802D0895AC
:10101000EE27FF27AA27BB2708C0A20FB31FE41F94
:10102000F51F220F331F441F551F969587957795FF
:10103000679598F37040A9F7009799F7BD01CF0124
:101040000895A1E21A2EAA1BBB1BFD010DC0AA1F09
:10105000BB1FEE1FFF1FA217B307E407F50720F021
:10106000A21BB30BE40BF50B661F771F881F991F9C
:101070001A9469F760957095809590959B01AC01E5
:10108000BD01CF010895FC0188279927E89421919B
:101090002032E9F3293010F02E30C8F32B3239F02A
:1010A0002D3231F4689403C03CD0820F911D219100
:1010B00020532A30C8F31EF4909581959F4F0895D0
:1010C000911106C080538A5010F0865C06C00895C6
:1010D00099278827089585FDFBCF80629111F8CF6D
:1010E00081568A51E0F708959111F2CF81528E55C1
:1010F000E0F78158E5DF8823C1F781E00895911179
:10110000089581568A5108F4805285580895BB2766
:101110004A3031F4992322F4BDE2909581959F4F96
:101120002CC0BC01880F991F880F991F860F971F2D
:10113000880F991F0895BB27FA01A62F6217710522
:1011400081059105330B30FB66F0AA27660F771FE8
:10115000881F991FAA1FA21710F0A21B6395385071
:10116000A9F7A05DAA3308F0A95DA19336F7B111E4
:10117000B1931082CA0119C0BB27FB015527AA27CA
:10118000880F991FAA1FA41710F0A41B8395505114
:10119000B9F7A05DAA3308F0A95DA193009779F78C
:1011A000B111B1931192CB0100C0DC01FC01672F9A
:1011B00071917723E1F7329704C07C916D9370832E
:1011C0006291AE17BF07C8F30895DC01CB01FC01A3
:1011D000E199FECF06C0FFBBEEBBE09A31960DB29F
:1011E0000D9241505040B8F70895E199FECF9FBB52
:1011F0008EBBE09A99278DB30895A8E1B0E042E054
:1012000050E0E5CFDC01CB0102C02D9105D041506B
:101210005040D8F70895262FE199FECF1CBA9FBB06
:101220008EBB2DBB0FB6F894E29AE19A0FBE0196E1
:0C1230000895F1DF272FF0CFF894FFCFD6
:08123C000000000100010E3C5E
:00000001FF
