:100000005EC00AC7A7C77FC07EC07DC07CC07BC062
:100010007AC079C078C06AC776C075C074C073C032
:1000200072C0D1C0D8C0DFC0E6C0EDC0F4C0FCC013
:1000300033C138C13DC142C147C14CC193C1D1C1D7
:10004000E6C104C22FC27AC2ADC2C8C2CBC2F3C2DB
:1000500092C391C390C3F1C21DC38DC332C38BC37E
:100060008AC383C386C30D0A00503A000D0A0041BB
:10007000000D0A000D0A00443A000D0A004E55001A
:100080000D0A0041000D0A000D0A000D0A00410092
:100090004E42000D0A000D0A0041004E4200410090
:1000A0000D0A004E55000D0A00473A000D0A005493
:1000B0003A50696C6C4361703A004E55000011244F
:1000C0001FBECFE5D2E0DEBFCDBF14BE0FB6F894A1
:1000D000A89581B5886181BD11BC0FBE10E0A0E676
:1000E000B0E0E2E5F4E102C005900D92A836B10758
:1000F000D9F721E0A8E6B0E001C01D92AE32B20708
:10010000E1F7CBD5A4C97CCF8AEB90E0EDD7089579
:10011000CF92DF92EF92FF92CF938FEA90E0E4D7F5
:1001200080E3AAD78EE2A8D783E3A6D780E3A4D73B
:100130008AE3A2D7E9D4882399F0E6D48F3F91F0DF
:10014000E7D4C82FE1D4C81779F01BD56B017C0127
:100150003DD56C157D058E059F0540F081E007C0FB
:1001600084E005C084E003C080E001C082E0805DDF
:1001700083D78CEA90E0B8D7CF91FF90EF90DF90D3
:10018000CF9008950F931F93CF93DF93CDB7DEB732
:1001900065970FB6F894DEBF0FBECDBF8C0189EA1C
:1001A00090E0A2D7D8018C9167D78AE365D7D801B0
:1001B000EC918E2F90E0FC01F097E730F105E0F52F
:1001C000EF5EFF4F099445E150E06DE570E0CE0130
:1001D000019606D932C045E150E068E470E0CE01F6
:1001E0000196FED82AC045E150E063E370E0CE01FD
:1001F0000196F6D822C045E150E069E070E0CE01FA
:100200000196EED81AC045E150E06EE170E0CE01F3
:100210000196E6D812C080E090E0FAD84AE0BE012C
:100220006F5F7F4F7FD809C06FD44AE0BE016F5F18
:100230007F4F90E077D801C019821D8ACE010196C8
:1002400045D786EA90E050D765960FB6F894DEBFA2
:100250000FBECDBFDF91CF911F910F9108950F93E6
:100260001F93CF93DF93DC011196FD0101900020D5
:10027000E9F731974E2F4A1B463108F045E1EC0172
:10028000E8810E2F10E0F801F097E730F10508F053
:100290006DC0E85EFF4F099450E06DE570E0CD0160
:1002A000BCD86AC050E068E470E0CD01B6D864C044
:1002B00050E063E370E0CD01B0D85EC050E069E08B
:1002C00070E0CD01AAD858C050E06EE170E0CD01D9
:1002D000A4D852C0CD01E2D78C01BC0180E090E0EF
:1002E000B3D8C801A0E0B0E0AC01BD01440F551F78
:1002F000661F771F440F551F661F771F440F551F3A
:10030000661F771F481B590B6A0B7B0B440F551F49
:10031000661F771F440F551F661F771F440F551F19
:10032000661F771F440F551F661F771F440F551F09
:10033000661F771F840F951FA61FB71F880F991F71
:10034000AA1FBB1F880F991FAA1FBB1FBC01CD018D
:10035000660F771F881F991F660F771F881F991FC9
:10036000F8D20AC0CD019AD7E3D306C083EA90E061
:10037000BBD680EA90E0B8D6DF91CF911F910F9164
:100380000895982F92959F70292F220F220F920F78
:10039000990F8F70890F0895AF92BF92CF92DF921D
:1003A000EF92FF920F931F93CF93DF93CDB7DEB7FA
:1003B000AE970FB6F894DEBF0FBECDBF8C018CE3B5
:1003C00080936700F801808190E0A4D7815491095F
:1003D0008431910508F0CFC1815E9F4F8F939F9329
:1003E0000895F8018181823571F4BCD220E13EE0AC
:1003F00040E050E031D7CA01B901ABD2BCD28EE99E
:1004000090E072D6BEC18BE990E06ED6BAC1F80119
:10041000DE0117969E01225F3F4F8281982F9295B1
:10042000907F83818053890F8D933396A217B307F2
:10043000A1F7AE01495F5F4F67E084E2E8D389E945
:1004400090E052D686E990E04FD69BC1AE01495F5D
:100450005F4F67E084E2FCD383E40ED68E01095F30
:100460001F4F6E01FEE0CF0ED11CF80181918F016C
:1004700088DFF82E8AE300D64AE0BE016F5F7F4F27
:100480008F2D90E04FD7F9E0FF1510F080E3F4D501
:10049000CE0101961BD60C151D0539F783E990E0B6
:1004A00023D66FC187E790E01FD632D34AE0BE0162
:1004B000695D7F4F90E06BD7CE01879607D684E7C2
:1004C00090E012D6C12CD12C23C08CE8C81681E054
:1004D000D80618F4C70194D702C0F801808140E122
:1004E000BE01695D7F4F90E052D7CE018796EED571
:1004F0008AE3C2D5FFEFEF1AFF0A0F5F1F4F0A15FD
:100500001B0519F784E0C80ED11C81E790E0ECD5FB
:10051000FFD290E0880F991F880F991FC816D9063F
:1005200008F02FC1F601EC58FF4F7F018601025BF6
:100530001040C6018E5A90405C01C7CFF8018181FE
:10054000823561F502E010E011700115110559F0D6
:10055000E12CF12C60E0C70169D7FFEFEF1AFF0A29
:100560000E151F05B9F7095F1F4F05C060E0C801F0
:100570005DD70F5F1F4F011582E01807B8F38FE6B4
:1005800090E0B2D58CE690E0AFD598E088E10FB668
:10059000F894A89581BD0FBE91BDFFCF80E990E092
:1005A000A3D5EFC0F801DE0117969E01225F3F4FF1
:1005B0008281982F9295907F83818053890F8D93AC
:1005C00033962A173B07A1F7CE010796BAD28EE8D9
:1005D00090E08AD58BE890E087D5D3C0C80101961A
:1005E000D1DDCFC0CE010796C1D288E445D58E01BA
:1005F000095F1F4F6E019EE0C90ED11CF801819169
:100600008F01BFDEF82E8AE337D54AE0BE016F5F67
:100610007F4F8F2D90E086D6F9E0FF1510F080E334
:100620002BD5CE01019652D50C151D0539F788E85A
:1006300090E05AD5A6C0D3D2A4C047E050E062E013
:1006400070E0CE010796CCD68DE416D58E01095FF9
:100650001F4F6E018EE0C80ED11CF80181918F01F1
:1006600090DEF82E8AE308D54AE0BE016F5F7F4F27
:100670008F2D90E057D6F9E0FF1510F080E3FCD401
:10068000CE01019623D5C016D10639F785E890E052
:100690002BD577C0AE01495F5F4F67E084E2D8D2C7
:1006A0008F818F778F8347E050E062E070E0CE016A
:1006B0000796B3D683E890E017D580E890E014D58C
:1006C00060C089E690E010D5E7D14AE0BE01695DDF
:1006D0007F4F90E05CD6CE018796F8D48AE3CCD4E5
:1006E00017D24AE0BE01695D7F4F90E050D6CE013F
:1006F0008796ECD48AE3C0D444D22AE0AE01495DA7
:100700005F4F24D6CE018796E1D48AE3B5D42AD1AF
:100710002AE0AE01495D5F4F19D6CE018796D6D447
:100720008AE3AAD453D22AE0AE01495D5F4F0ED6C8
:10073000CE018796CBD48AE39FD4A5D12AE0AE011F
:10074000495D5F4F03D6CE018796C0D48AE394D427
:1007500091D12AE0AE01495D5F4FF8D5CE01879671
:10076000B5D486E690E0C0D40CC0C801019677DD10
:1007700008C0CEDC06C08DE790E0B6D48AE790E0F2
:10078000B3D4AE960FB6F894DEBF0FBECDBFDF91E7
:10079000CF911F910F91FF90EF90DF90CF90BF907E
:1007A000AF9008950F931F93CF93DF93CDB7DEB72C
:1007B00027970FB6F894DEBF0FBECDBFAC01E0E6C1
:1007C000F0E08E010F5F1F4F67E670E0DA019D9148
:1007D000AD018191292F2F70281B92959F70892F31
:1007E000880F880F980F990F920FD8019D938D0154
:1007F000E617F70759F78F8190E0A0E0B0E0AC0171
:10080000BD01440F551F661F771F840F951FA61F3C
:10081000B71F880F991FAA1FBB1F880F991FAA1FF8
:10082000BB1F2E81820F911DA11DB11DAC01BD0109
:10083000440F551F661F771F840F951FA61FB71FF4
:10084000AC01BD01440F551F661F771F440F551F94
:10085000661F771F840F951FA61FB71F880F991F4C
:10086000AA1FBB1F2C81820F911DA11DB11DAC01C0
:10087000BD01440F551F661F771F840F951FA61FCC
:10088000B71F880F991FAA1FBB1F880F991FAA1F88
:10089000BB1F880F991FAA1FBB1F2B81820F911DA1
:1008A000A11DB11DAC01BD01440F551F661F771F6F
:1008B000840F951FA61FB71FAC01BD01440F551F24
:1008C000661F771F440F551F661F771F840F951FE4
:1008D000A61FB71F880F991FAA1FBB1F880F991F3C
:1008E000AA1FBB1F2A81820F911DA11DB11DAC0142
:1008F000BD01440F551F661F771F840F951FA61F4C
:10090000B71FAC01BD01440F551F661F771F440F71
:10091000551F661F771F840F951FA61FB71F880FCF
:10092000991FAA1FBB1F880F991FAA1FBB1F2981D0
:10093000BC01CD01620F711D811D911D27960FB65F
:10094000F894DEBF0FBECDBFDF91CF911F910F9105
:10095000089560936C0070936D0080936E00909387
:100960006F00089560916C0070916D0080916E0031
:1009700090916F000895CF92DF92EF92FF920F93C4
:100980001F9383E790E03CD5C0906C00D0906D0041
:10099000E0906E00F0906F00682F70E080E090E0D3
:1009A000A701960140D40091680010916900209140
:1009B0006A0030916B00AB01BC01400F511F621FF8
:1009C000731F4093BE005093BF006093C0007093AC
:1009D000C10097018601000F111F221F331F000F56
:1009E000111F221F331FD901C801880F991FAA1F89
:1009F000BB1F880F991FAA1FBB1F800F911FA21F2B
:100A0000B31F8C0D9D1DAE1DBF1D880F991FAA1F02
:100A1000BB1F880F991FAA1FBB1FC80ED91EEA1E35
:100A2000FB1ECD2CDE2CEF2CFF24C40ED51EE61EA3
:100A3000F71EC092D400D092D500E092D600F0927A
:100A4000D7001F910F91FF90EF90DF90CF90089506
:100A5000CF9383E790E0D4D4C82F82E790E0D0D43E
:100A6000C81728F461E06C0F83E790E0DFD483DFE0
:100A7000CF9108956091D4007091D5008091D600F7
:100A80009091D70008956091BE007091BF00809151
:100A9000C0009091C10008950F931F9381E00091D1
:100AA000C2001091C3002091C4003091C500409154
:100AB000BE005091BF006091C0007091C10040170E
:100AC00051076207730708F080E01F910F910895A6
:100AD0000F931F9381E00091C2001091C3002091F9
:100AE000C4003091C5004091D4005091D500609170
:100AF000D6007091D700401751076207730708F0BE
:100B000080E01F910F91089582E790E079D40895D5
:100B100083E790E075D40895CF9382E790E070D496
:100B2000C82F83E790E06CD4C81B8C2FCF91089519
:100B3000682F82E790E07AD460E083E790E076D493
:100B40000895A82FB92FE6ECF0E04DEC50E02D9180
:100B50002193E417F507D9F725DE609368007093B9
:100B6000690080936A0090936B000895E6ECF0E0D2
:100B7000DC012DEC30E081918D93E217F307D9F77A
:100B80000895609168007091690080916A00909169
:100B90006B0008954DEC50E067E084E259D08DEC95
:100BA00090E000DE6093C2007093C3008093C400A5
:100BB0009093C5000895EDECF0E0DC0124ED30E009
:100BC00081918D93E217F307D9F708956091C200E0
:100BD0007091C3008091C4009091C500089581E098
:100BE0008093D90080937000C6DE0895DA9A80E27F
:100BF00094D181E092D18FE090D1DA98DA9A80E3B3
:100C00008CD18AE08AD187E188D1DA980895EF9271
:100C1000FF920F931F93CF93DF93162F7A01DA9AE7
:100C20007CD1112369F0E7011150012F10E00F5F13
:100C30001F4F0E0D1F1D899170D1C017D107D9F715
:100C4000DA98DF91CF911F910F91FF90EF90089567
:100C5000EF92FF920F931F93CF93DF93062F7A01AA
:100C6000DA9A80685AD1002361F0E701015010E060
:100C70000F5F1F4F0E0D1F1D60D18993C017D10745
:100C8000D9F7DA98F70180818F778083DF91CF9150
:100C90001F910F91FF90EF90089580E896E00FB6B6
:100CA000F89486BD96BD0FBEF8949CE59ABB9AE772
:100CB0009BBB93E097BB94E098BB15BE81B98FE0D6
:100CC00080B9789493DF86D08091D80081FF02C0EC
:100CD0001DD2FACF8091D80083FF02C04FD0F4CF4D
:100CE0008091D80082FF02C0B5D0EECF8091D800AD
:100CF00084FFEACF6FD0E8CFEF92FF920F931F935C
:100D0000CF93DF93E82EF62E042F122F01DF90E011
:100D1000EC01CC0FDD1FCC0FDD1FCC3881E0D807F4
:100D2000A8F46E2DCE018C589F4F80D36F2DCE012D
:100D30008B589F4F7BD3602FCE018A589F4F76D31D
:100D4000612FCE0189589F4F71D30DC0CE018652BD
:100D50009F4FFC01EC58F140E0823196F0823196D1
:100D600000833196108374DE81E08093D900DF9197
:100D7000CF911F910F91FF90EF900895CF93DF9344
:100D8000CDB7DEB727970FB6F894DEBF0FBECDBF45
:100D90008091D800877F8093D8008091D8008061AF
:100DA0008093D8008CE3809367008091D9008111F3
:100DB00008C0CE010196FFDE2E814C816B818A81B5
:100DC0009BDF27960FB6F894DEBF0FBECDBFDF9135
:100DD000CF9108958091D8008F7E8093D800809124
:100DE0006700882311F0DD9A01C0DD98C99BFECF12
:100DF000B29BFECF80E18ABF82E282BB80E58BBFDF
:100E000085B7877E806185BF85B7806285BF8895FD
:100E100085B78F7D85BF08951F920F920FB60F92F1
:100E200011248F938BB78F7B8BBF8091D800886004
:100E30008093D8008F910F900FBE0F901F90189540
:100E4000029881E089BF18BE10BE83E083BF89EDA0
:100E500082BF0895CF93DF93CDB7DEB727970FB644
:100E6000F894DEBF0FBECDBF8091D8008B7F8093FA
:100E7000D80080916700882319F081508093670023
:100E800043DE882329F180917000882309F144DE34
:100E9000811102C0DE980AC08091D900811106C07C
:100EA0003BDE813011F4DC9801C0DB98C9DF72DED3
:100EB000F3DD81111092D9000BDE882371F0CE0191
:100EC000019679DE20E040E060E080E015DF05C0BB
:100ED0008091D80080618093D80027960FB6F8944F
:100EE000DEBF0FBECDBFDF91CF9108951F920F924D
:100EF0000FB60F9211248F9313BE19BE029A8BB3B3
:100F000088658BBB8091D80080618093D8008F91D9
:100F10000F900FBE0F901F901895B89A98E020E898
:100F2000C198382F322311F0C09A01C0C098C19ADD
:100F300026959150A9F7C1980895B89898E020E8AF
:100F400080E0C198C19AB099822B26959150C9F73B
:100F5000C19808951F920F920FB60F9211242F93EC
:100F60008F939F93EF93FF93CD9973C0DD9B71C0D7
:100F700084E400008150E9F784E480939B00CD9BDA
:100F800006C080919A00806880939A0008C0809182
:100F90009A008F7780939A000000000000008091F3
:100FA0009A00869580939A008DE200008150E9F7BF
:100FB0008DE280939B0081E08093990092E02DE286
:100FC00080919B00826080939B00CD9B06C08091A6
:100FD0009A00806880939A0007C080919A008F776A
:100FE00080939A00000000008DE200008150E9F734
:100FF00020939B0080919A00869580939A0090930D
:1010000099009F5F9830E1F6000000009DE2909308
:101010009B00CD9B04C0806880939A0002C080939F
:101020009A00809167008823D9F0E0919D00EF5FDE
:10103000EF71E0939900E0939D00F0E0E256FF4FDE
:1010400080919A0080838091D80082608093D8003C
:1010500007C0C99905C08091D80084608093D800EA
:1010600080E18ABFFF91EF919F918F912F910F9017
:101070000FBE0F901F9018959BB398619BBBDE9895
:1010800093E300009150E9F71092980020E380FF6D
:1010900002C0DE9A04C0DE9800000000000090E369
:1010A00000009150E9F72093970086959091980061
:1010B0009F5F90939800983050F3DE9A80E3000091
:1010C0008150E9F780E3809397000895CF93DF93F1
:1010D000EC018881882329F02196CEDF8991811146
:1010E000FCCFDF91CF910895CF93DF93EC01FC010A
:1010F0008491882341F0FE0121968491BDDFFE0199
:1011000084918111F8CFDF91CF910895CF92DF9232
:10111000EF92FF921F93CF93DF938091D8008D7F42
:101120008093D80085E790E0909396008093950097
:1011300081E790E0909374008093730066C0909173
:101140009D0080919C009817D1F3E0919C00EF5F87
:10115000EF71E0939C00C0917300D0917400E8801F
:10116000F98080E2E816F10448F019821882E091D3
:101170009500F09196001082C7D747C0F0E0E25684
:10118000FF4F10811B3149F419821882E0919500BC
:10119000F09196001082B8D738C0183031F481E051
:1011A000E81AF108F982E88230C0C12ED12CC601BC
:1011B00092D0892B31F4C601A2D0892B11F41032C0
:1011C00071F48091950090919600FC01EE0DFF1D49
:1011D00010838881998101969983888316C01D3078
:1011E000A1F48091950090919600FC01EE0DFF1DF9
:1011F0001082D2D8E0919500F09196001082E09193
:101200007300F09174001182108290919D00809182
:101210009C00981394CFDF91CF911F91FF90EF9096
:10122000DF90CF900895EE27FF27AA27BB2708C09D
:10123000A20FB31FE41FF51F220F331F441F551FBA
:10124000969587957795679598F37040A9F70097DD
:1012500099F7BD01CF010895A1E21A2EAA1BBB1B6D
:10126000FD010DC0AA1FBB1FEE1FFF1FA217B30772
:10127000E407F50720F0A21BB30BE40BF50B661F88
:10128000771F881F991F1A9469F76095709580954C
:1012900090959B01AC01BD01CF010895FC01882709
:1012A0009927E89421912032E9F3293010F02E306B
:1012B000C8F32B3239F02D3231F4689403C03CD09E
:1012C000820F911D219120532A30C8F31EF490956E
:1012D00081959F4F0895911106C080538A5010F058
:1012E000865C06C0089599278827089585FDFBCF61
:1012F00080629111F8CF81568A51E0F708959111DB
:10130000F2CF81528E55E0F78158E5DF8823C1F78F
:1013100081E008959111089581568A5108F4805210
:1013200085580895BB274A3031F4992322F4BDE251
:10133000909581959F4F2CC0BC01880F991F880FF5
:10134000991F860F971F880F991F0895BB27FA01D1
:10135000A62F6217710581059105330B30FB66F0EE
:10136000AA27660F771F881F991FAA1FA21710F0C0
:10137000A21B63953850A9F7A05DAA3308F0A95DB8
:10138000A19336F7B111B1931082CA0119C0BB27DE
:10139000FB015527AA27880F991FAA1FA41710F031
:1013A000A41B83955051B9F7A05DAA3308F0A95D3D
:1013B000A193009779F7B111B1931192CB0100C0BD
:1013C000DC01FC01672F71917723E1F7329704C0AC
:1013D0007C916D9370836291AE17BF07C8F3089537
:1013E000DC01CB01FC01E199FECF06C0FFBBEEBBE7
:1013F000E09A31960DB20D9241505040B8F70895E1
:10140000E199FECF9FBB8EBBE09A99278DB30895DB
:10141000A8E1B0E042E050E0E5CFDC01CB0102C042
:101420002D9105D041505040D8F70895262FE199CD
:10143000FECF1CBA9FBB8EBB2DBB0FB6F894E29AB1
:10144000E19A0FBE01960895F1DF272FF0CFF894AF
:02145000FFCFCC
:081452000000000100010E3C46
:00000001FF
